###############################################################################
#
# IAR ELF Linker V9.10.2.313/W64 for ARM                  23/Aug/2021  20:32:25
# Copyright 2007-2021 IAR Systems AB.
#
#    Output file  =
#        C:\Users\jmbra\Downloads\STM32F4-Discovery_FW_V1.1.0\Project\Peripheral_Examples\IO_Toggle\EWARM\IO_Toggle\Exe\IO_Toggle.out
#    Map file     =
#        C:\Users\jmbra\Downloads\STM32F4-Discovery_FW_V1.1.0\Project\Peripheral_Examples\IO_Toggle\EWARM\IO_Toggle\List\IO_Toggle.map
#    Command line =
#        -f
#        C:\Users\jmbra\Downloads\STM32F4-Discovery_FW_V1.1.0\Project\Peripheral_Examples\IO_Toggle\EWARM\IO_Toggle\Exe\IO_Toggle.out.rsp
#        (C:\Users\jmbra\Downloads\STM32F4-Discovery_FW_V1.1.0\Project\Peripheral_Examples\IO_Toggle\EWARM\IO_Toggle\Obj\User\main.o
#        C:\Users\jmbra\Downloads\STM32F4-Discovery_FW_V1.1.0\Project\Peripheral_Examples\IO_Toggle\EWARM\IO_Toggle\Obj\STM32F4xx_StdPeriph_Driver\misc.o
#        C:\Users\jmbra\Downloads\STM32F4-Discovery_FW_V1.1.0\Project\Peripheral_Examples\IO_Toggle\EWARM\IO_Toggle\Obj\EWARM\startup_stm32f4xx.o
#        C:\Users\jmbra\Downloads\STM32F4-Discovery_FW_V1.1.0\Project\Peripheral_Examples\IO_Toggle\EWARM\IO_Toggle\Obj\STM32F4-Discovery\stm32f4_discovery.o
#        C:\Users\jmbra\Downloads\STM32F4-Discovery_FW_V1.1.0\Project\Peripheral_Examples\IO_Toggle\EWARM\IO_Toggle\Obj\STM32F4xx_StdPeriph_Driver\stm32f4xx_gpio.o
#        C:\Users\jmbra\Downloads\STM32F4-Discovery_FW_V1.1.0\Project\Peripheral_Examples\IO_Toggle\EWARM\IO_Toggle\Obj\User\stm32f4xx_it.o
#        C:\Users\jmbra\Downloads\STM32F4-Discovery_FW_V1.1.0\Project\Peripheral_Examples\IO_Toggle\EWARM\IO_Toggle\Obj\STM32F4xx_StdPeriph_Driver\stm32f4xx_rcc.o
#        C:\Users\jmbra\Downloads\STM32F4-Discovery_FW_V1.1.0\Project\Peripheral_Examples\IO_Toggle\EWARM\IO_Toggle\Obj\User\system_stm32f4xx.o
#        --redirect _Printf=_PrintfSmallNoMb --redirect _Scanf=_ScanfSmallNoMb
#        --no_out_extension -o
#        C:\Users\jmbra\Downloads\STM32F4-Discovery_FW_V1.1.0\Project\Peripheral_Examples\IO_Toggle\EWARM\IO_Toggle\Exe\IO_Toggle.out
#        --map
#        C:\Users\jmbra\Downloads\STM32F4-Discovery_FW_V1.1.0\Project\Peripheral_Examples\IO_Toggle\EWARM\IO_Toggle\List\IO_Toggle.map
#        --config
#        C:\Users\jmbra\Downloads\STM32F4-Discovery_FW_V1.1.0\Project\Peripheral_Examples\IO_Toggle\EWARM\stm32f4xx_flash.icf
#        --semihosting --entry __iar_program_start --vfe --text_out locale)
#
###############################################################################

*******************************************************************************
*** RUNTIME MODEL ATTRIBUTES
***

CppFlavor       = *
__SystemLibrary = DLib
__dlib_version  = 6


*******************************************************************************
*** HEAP SELECTION
***

The basic heap was selected because some modules are built with
size limitations (and not runtime checking), and --advanced_heap
was not specified.


*******************************************************************************
*** PLACEMENT SUMMARY
***

"A0":  place at address 0x800'0000 { ro section .intvec };
"P1":  place in [from 0x800'0000 to 0x80f'ffff] { ro };
define block CSTACK with size = 1K, alignment = 8 { };
define block HEAP with size = 512, alignment = 8 { };
"P2":  place in [from 0x2000'0000 to 0x2002'0000] {
          rw, block CSTACK, block HEAP };

  Section          Kind         Address   Size  Object
  -------          ----         -------   ----  ------
"A0":                                    0x188
  .intvec          ro code   0x800'0000  0x188  startup_stm32f4xx.o [1]
                           - 0x800'0188  0x188

"P1":                                    0x480
  .text            ro code   0x800'0188   0xe0  system_stm32f4xx.o [4]
  .text            ro code   0x800'0268   0x9e  main.o [4]
  .text            ro code   0x800'0308   0x18  stm32f4xx_rcc.o [3]
  .text            ro code   0x800'0320   0x84  stm32f4xx_gpio.o [3]
  .text            ro code   0x800'03a4   0x38  zero_init3.o [6]
  .text            ro code   0x800'03dc   0x28  data_init.o [6]
  .iar.init_table  const     0x800'0404   0x10  - Linker created -
  .text            ro code   0x800'0414   0x1e  cmain.o [6]
  .text            ro code   0x800'0432    0x4  low_level_init.o [5]
  .text            ro code   0x800'0436    0x4  exit.o [5]
  .text            ro code   0x800'043c    0xa  cexit.o [6]
  .text            ro code   0x800'0448   0x14  exit.o [7]
  .text            ro code   0x800'045c   0x1c  cstartup_M.o [6]
  .text            ro code   0x800'0478   0x12  stm32f4xx_it.o [4]
  .text            ro code   0x800'048c   0x10  startup_stm32f4xx.o [1]
  .text            ro code   0x800'049c    0x4  startup_stm32f4xx.o [1]
  .text            ro code   0x800'04a0    0x4  startup_stm32f4xx.o [1]
  .text            ro code   0x800'04a4    0x4  startup_stm32f4xx.o [1]
  .text            ro code   0x800'04a8    0x4  startup_stm32f4xx.o [1]
  .text            ro code   0x800'04ac    0x4  startup_stm32f4xx.o [1]
  .text            ro code   0x800'04b0    0x4  startup_stm32f4xx.o [1]
  .text            ro code   0x800'04b4    0x4  startup_stm32f4xx.o [1]
  .text            ro code   0x800'04b8    0x4  startup_stm32f4xx.o [1]
  .text            ro code   0x800'04bc    0x4  startup_stm32f4xx.o [1]
  .text            ro code   0x800'04c0    0x4  startup_stm32f4xx.o [1]
  .text            ro code   0x800'04c4    0x4  startup_stm32f4xx.o [1]
  .text            ro code   0x800'04c8    0x4  startup_stm32f4xx.o [1]
  .text            ro code   0x800'04cc    0x4  startup_stm32f4xx.o [1]
  .text            ro code   0x800'04d0    0x4  startup_stm32f4xx.o [1]
  .text            ro code   0x800'04d4    0x4  startup_stm32f4xx.o [1]
  .text            ro code   0x800'04d8    0x4  startup_stm32f4xx.o [1]
  .text            ro code   0x800'04dc    0x4  startup_stm32f4xx.o [1]
  .text            ro code   0x800'04e0    0x4  startup_stm32f4xx.o [1]
  .text            ro code   0x800'04e4    0x4  startup_stm32f4xx.o [1]
  .text            ro code   0x800'04e8    0x4  startup_stm32f4xx.o [1]
  .text            ro code   0x800'04ec    0x4  startup_stm32f4xx.o [1]
  .text            ro code   0x800'04f0    0x4  startup_stm32f4xx.o [1]
  .text            ro code   0x800'04f4    0x4  startup_stm32f4xx.o [1]
  .text            ro code   0x800'04f8    0x4  startup_stm32f4xx.o [1]
  .text            ro code   0x800'04fc    0x4  startup_stm32f4xx.o [1]
  .text            ro code   0x800'0500    0x4  startup_stm32f4xx.o [1]
  .text            ro code   0x800'0504    0x4  startup_stm32f4xx.o [1]
  .text            ro code   0x800'0508    0x4  startup_stm32f4xx.o [1]
  .text            ro code   0x800'050c    0x4  startup_stm32f4xx.o [1]
  .text            ro code   0x800'0510    0x4  startup_stm32f4xx.o [1]
  .text            ro code   0x800'0514    0x4  startup_stm32f4xx.o [1]
  .text            ro code   0x800'0518    0x4  startup_stm32f4xx.o [1]
  .text            ro code   0x800'051c    0x4  startup_stm32f4xx.o [1]
  .text            ro code   0x800'0520    0x4  startup_stm32f4xx.o [1]
  .text            ro code   0x800'0524    0x4  startup_stm32f4xx.o [1]
  .text            ro code   0x800'0528    0x4  startup_stm32f4xx.o [1]
  .text            ro code   0x800'052c    0x4  startup_stm32f4xx.o [1]
  .text            ro code   0x800'0530    0x4  startup_stm32f4xx.o [1]
  .text            ro code   0x800'0534    0x4  startup_stm32f4xx.o [1]
  .text            ro code   0x800'0538    0x4  startup_stm32f4xx.o [1]
  .text            ro code   0x800'053c    0x4  startup_stm32f4xx.o [1]
  .text            ro code   0x800'0540    0x4  startup_stm32f4xx.o [1]
  .text            ro code   0x800'0544    0x4  startup_stm32f4xx.o [1]
  .text            ro code   0x800'0548    0x4  startup_stm32f4xx.o [1]
  .text            ro code   0x800'054c    0x4  startup_stm32f4xx.o [1]
  .text            ro code   0x800'0550    0x4  startup_stm32f4xx.o [1]
  .text            ro code   0x800'0554    0x4  startup_stm32f4xx.o [1]
  .text            ro code   0x800'0558    0x4  startup_stm32f4xx.o [1]
  .text            ro code   0x800'055c    0x4  startup_stm32f4xx.o [1]
  .text            ro code   0x800'0560    0x4  startup_stm32f4xx.o [1]
  .text            ro code   0x800'0564    0x4  startup_stm32f4xx.o [1]
  .text            ro code   0x800'0568    0x4  startup_stm32f4xx.o [1]
  .text            ro code   0x800'056c    0x4  startup_stm32f4xx.o [1]
  .text            ro code   0x800'0570    0x4  startup_stm32f4xx.o [1]
  .text            ro code   0x800'0574    0x4  startup_stm32f4xx.o [1]
  .text            ro code   0x800'0578    0x4  startup_stm32f4xx.o [1]
  .text            ro code   0x800'057c    0x4  startup_stm32f4xx.o [1]
  .text            ro code   0x800'0580    0x4  startup_stm32f4xx.o [1]
  .text            ro code   0x800'0584    0x4  startup_stm32f4xx.o [1]
  .text            ro code   0x800'0588    0x4  startup_stm32f4xx.o [1]
  .text            ro code   0x800'058c    0x4  startup_stm32f4xx.o [1]
  .text            ro code   0x800'0590    0x4  startup_stm32f4xx.o [1]
  .text            ro code   0x800'0594    0x4  startup_stm32f4xx.o [1]
  .text            ro code   0x800'0598    0x4  startup_stm32f4xx.o [1]
  .text            ro code   0x800'059c    0x4  startup_stm32f4xx.o [1]
  .text            ro code   0x800'05a0    0x4  startup_stm32f4xx.o [1]
  .text            ro code   0x800'05a4    0x4  startup_stm32f4xx.o [1]
  .text            ro code   0x800'05a8    0x4  startup_stm32f4xx.o [1]
  .text            ro code   0x800'05ac    0x4  startup_stm32f4xx.o [1]
  .text            ro code   0x800'05b0    0x4  startup_stm32f4xx.o [1]
  .text            ro code   0x800'05b4    0x4  startup_stm32f4xx.o [1]
  .text            ro code   0x800'05b8    0x4  startup_stm32f4xx.o [1]
  .text            ro code   0x800'05bc    0x4  startup_stm32f4xx.o [1]
  .text            ro code   0x800'05c0    0x4  startup_stm32f4xx.o [1]
  .text            ro code   0x800'05c4    0x4  startup_stm32f4xx.o [1]
  .text            ro code   0x800'05c8    0x4  startup_stm32f4xx.o [1]
  .text            ro code   0x800'05cc    0x4  startup_stm32f4xx.o [1]
  .text            ro code   0x800'05d0    0x4  startup_stm32f4xx.o [1]
  .text            ro code   0x800'05d4    0x4  startup_stm32f4xx.o [1]
  .text            ro code   0x800'05d8    0x4  startup_stm32f4xx.o [1]
  .text            ro code   0x800'05dc    0x4  startup_stm32f4xx.o [1]
  .text            ro code   0x800'05e0    0x4  startup_stm32f4xx.o [1]
  .text            ro code   0x800'05e4    0x4  startup_stm32f4xx.o [1]
  .text            ro code   0x800'05e8    0x4  startup_stm32f4xx.o [1]
  .text            ro code   0x800'05ec    0x4  startup_stm32f4xx.o [1]
  .text            ro code   0x800'05f0    0x4  startup_stm32f4xx.o [1]
  .text            ro code   0x800'05f4    0x4  startup_stm32f4xx.o [1]
  .text            ro code   0x800'05f8    0x4  startup_stm32f4xx.o [1]
  .text            ro code   0x800'05fc    0x4  startup_stm32f4xx.o [1]
  .text            ro code   0x800'0600    0x4  startup_stm32f4xx.o [1]
  .text            ro code   0x800'0604    0x4  startup_stm32f4xx.o [1]
  .rodata          const     0x800'0608    0x0  zero_init3.o [6]
                           - 0x800'0608  0x480

"P2", part 1 of 2:                         0x8
  .bss             zero     0x2000'0000    0x8  main.o [4]
                          - 0x2000'0008    0x8

"P2", part 2 of 2:                       0x400
  CSTACK                    0x2000'0008  0x400  <Block>
    CSTACK         uninit   0x2000'0008  0x400  <Block tail>
                          - 0x2000'0408  0x400

Unused ranges:

         From           To      Size
         ----           --      ----
   0x800'0608   0x80f'ffff  0xf'f9f8
  0x2000'0408  0x2002'0000  0x1'fbf9


*******************************************************************************
*** INIT TABLE
***

          Address      Size
          -------      ----
Zero (__iar_zero_init3)
    1 destination range, total size 0x8:
          0x2000'0000   0x8



*******************************************************************************
*** MODULE SUMMARY
***

    Module               ro code  ro data  rw data
    ------               -------  -------  -------
command line/config:
    ----------------------------------------------
    Total:

C:\Users\jmbra\Downloads\STM32F4-Discovery_FW_V1.1.0\Project\Peripheral_Examples\IO_Toggle\EWARM\IO_Toggle\Obj\EWARM: [1]
    startup_stm32f4xx.o      772
    ----------------------------------------------
    Total:                   772

C:\Users\jmbra\Downloads\STM32F4-Discovery_FW_V1.1.0\Project\Peripheral_Examples\IO_Toggle\EWARM\IO_Toggle\Obj\STM32F4-Discovery: [2]
    ----------------------------------------------
    Total:

C:\Users\jmbra\Downloads\STM32F4-Discovery_FW_V1.1.0\Project\Peripheral_Examples\IO_Toggle\EWARM\IO_Toggle\Obj\STM32F4xx_StdPeriph_Driver: [3]
    stm32f4xx_gpio.o         132
    stm32f4xx_rcc.o           24
    ----------------------------------------------
    Total:                   156

C:\Users\jmbra\Downloads\STM32F4-Discovery_FW_V1.1.0\Project\Peripheral_Examples\IO_Toggle\EWARM\IO_Toggle\Obj\User: [4]
    main.o                   158                 8
    stm32f4xx_it.o            18
    system_stm32f4xx.o       224
    ----------------------------------------------
    Total:                   400                 8

dl7M_tln.a: [5]
    exit.o                     4
    low_level_init.o           4
    ----------------------------------------------
    Total:                     8

rt7M_tl.a: [6]
    cexit.o                   10
    cmain.o                   30
    cstartup_M.o              28
    data_init.o               40
    zero_init3.o              56
    ----------------------------------------------
    Total:                   164

shb_l.a: [7]
    exit.o                    20
    ----------------------------------------------
    Total:                    20

    Gaps                       8
    Linker created                     16    1'024
--------------------------------------------------
    Grand Total:           1'528       16    1'032


*******************************************************************************
*** ENTRY LIST
***

Entry                       Address  Size  Type      Object
-----                       -------  ----  ----      ------
.iar.init_table$$Base    0x800'0404         --   Gb  - Linker created -
.iar.init_table$$Limit   0x800'0414         --   Gb  - Linker created -
?main                    0x800'0415        Code  Gb  cmain.o [6]
BusFault_Handler         0x800'047f   0x2  Code  Gb  stm32f4xx_it.o [4]
CSTACK$$Base            0x2000'0008         --   Gb  - Linker created -
CSTACK$$Limit           0x2000'0408         --   Gb  - Linker created -
DebugMon_Handler         0x800'0485   0x2  Code  Gb  stm32f4xx_it.o [4]
GPIO_Init                0x800'0321  0x7c  Code  Gb  stm32f4xx_gpio.o [3]
GPIO_InitStructure      0x2000'0000   0x8  Data  Gb  main.o [4]
GPIO_ResetBits           0x800'03a1   0x4  Code  Gb  stm32f4xx_gpio.o [3]
GPIO_SetBits             0x800'039d   0x4  Code  Gb  stm32f4xx_gpio.o [3]
HardFault_Handler        0x800'047b   0x2  Code  Gb  stm32f4xx_it.o [4]
MemManage_Handler        0x800'047d   0x2  Code  Gb  stm32f4xx_it.o [4]
NMI_Handler              0x800'0479   0x2  Code  Gb  stm32f4xx_it.o [4]
PendSV_Handler           0x800'0487   0x2  Code  Gb  stm32f4xx_it.o [4]
RCC_AHB1PeriphClockCmd   0x800'0309  0x14  Code  Gb  stm32f4xx_rcc.o [3]
Region$$Table$$Base      0x800'0404         --   Gb  - Linker created -
Region$$Table$$Limit     0x800'0414         --   Gb  - Linker created -
SVC_Handler              0x800'0483   0x2  Code  Gb  stm32f4xx_it.o [4]
SysTick_Handler          0x800'0489   0x2  Code  Gb  stm32f4xx_it.o [4]
SystemInit               0x800'0189  0xc4  Code  Gb  system_stm32f4xx.o [4]
UsageFault_Handler       0x800'0481   0x2  Code  Gb  stm32f4xx_it.o [4]
__cmain                  0x800'0415        Code  Gb  cmain.o [6]
__exit                   0x800'0449  0x14  Code  Gb  exit.o [7]
__iar_data_init3         0x800'03dd  0x28  Code  Gb  data_init.o [6]
__iar_program_start      0x800'045d        Code  Gb  cstartup_M.o [6]
__iar_zero_init3         0x800'03a5  0x38  Code  Gb  zero_init3.o [6]
__low_level_init         0x800'0433   0x4  Code  Gb  low_level_init.o [5]
__vector_table           0x800'0000        Data  Gb  startup_stm32f4xx.o [1]
_call_main               0x800'0421        Code  Gb  cmain.o [6]
_exit                    0x800'043d        Code  Gb  cexit.o [6]
exit                     0x800'0437   0x4  Code  Gb  exit.o [5]
main                     0x800'0269  0x7a  Code  Gb  main.o [4]


[1] = C:\Users\jmbra\Downloads\STM32F4-Discovery_FW_V1.1.0\Project\Peripheral_Examples\IO_Toggle\EWARM\IO_Toggle\Obj\EWARM
[2] = C:\Users\jmbra\Downloads\STM32F4-Discovery_FW_V1.1.0\Project\Peripheral_Examples\IO_Toggle\EWARM\IO_Toggle\Obj\STM32F4-Discovery
[3] = C:\Users\jmbra\Downloads\STM32F4-Discovery_FW_V1.1.0\Project\Peripheral_Examples\IO_Toggle\EWARM\IO_Toggle\Obj\STM32F4xx_StdPeriph_Driver
[4] = C:\Users\jmbra\Downloads\STM32F4-Discovery_FW_V1.1.0\Project\Peripheral_Examples\IO_Toggle\EWARM\IO_Toggle\Obj\User
[5] = dl7M_tln.a
[6] = rt7M_tl.a
[7] = shb_l.a

  1'528 bytes of readonly  code memory
     16 bytes of readonly  data memory
  1'032 bytes of readwrite data memory

Errors: none
Warnings: none
